{
  "contractName": "Attendence",
  "abi": [
    {
      "constant": true,
      "inputs": [
        {
          "name": "",
          "type": "uint256"
        }
      ],
      "name": "states",
      "outputs": [
        {
          "name": "",
          "type": "bool"
        }
      ],
      "payable": false,
      "stateMutability": "view",
      "type": "function",
      "signature": "0x017a9105"
    },
    {
      "constant": true,
      "inputs": [
        {
          "name": "",
          "type": "uint256"
        }
      ],
      "name": "students",
      "outputs": [
        {
          "name": "",
          "type": "address"
        }
      ],
      "payable": false,
      "stateMutability": "view",
      "type": "function",
      "signature": "0x06ead22e"
    },
    {
      "constant": false,
      "inputs": [
        {
          "name": "sid",
          "type": "uint256"
        }
      ],
      "name": "check_in",
      "outputs": [
        {
          "name": "",
          "type": "uint256"
        }
      ],
      "payable": false,
      "stateMutability": "nonpayable",
      "type": "function",
      "signature": "0x123368af"
    },
    {
      "constant": false,
      "inputs": [
        {
          "name": "_students",
          "type": "address[10]"
        }
      ],
      "name": "init",
      "outputs": [],
      "payable": false,
      "stateMutability": "nonpayable",
      "type": "function",
      "signature": "0x0eb632cf"
    },
    {
      "constant": true,
      "inputs": [],
      "name": "getStudents",
      "outputs": [
        {
          "name": "",
          "type": "address[10]"
        }
      ],
      "payable": false,
      "stateMutability": "view",
      "type": "function",
      "signature": "0xf1d064b3"
    },
    {
      "constant": true,
      "inputs": [],
      "name": "getStates",
      "outputs": [
        {
          "name": "",
          "type": "bool[10]"
        }
      ],
      "payable": false,
      "stateMutability": "view",
      "type": "function",
      "signature": "0xd8ab8274"
    }
  ],
  "bytecode": "0x608060405261014060405190810160405280600015151515815260200160001515151581526020016000151515158152602001600015151515815260200160001515151581526020016000151515158152602001600015151515815260200160001515151581526020016000151515158152602001600015151515815250600a90600a61008d9291906100a0565b5034801561009a57600080fd5b50610169565b82600a601f016020900481019282156101285791602002820160005b838211156100f957835183826101000a81548160ff02191690831515021790555092602001926001016020816000010492830192600103026100bc565b80156101265782816101000a81549060ff02191690556001016020816000010492830192600103026100f9565b505b5090506101359190610139565b5090565b61016691905b8082111561016257600081816101000a81549060ff02191690555060010161013f565b5090565b90565b6105f0806101786000396000f3fe608060405260043610610078576000357c0100000000000000000000000000000000000000000000000000000000900463ffffffff168063017a91051461007d57806306ead22e146100d05780630eb632cf1461014b578063123368af146101bf578063d8ab82741461020e578063f1d064b314610261575b600080fd5b34801561008957600080fd5b506100b6600480360360208110156100a057600080fd5b81019080803590602001909291905050506102b4565b604051808215151515815260200191505060405180910390f35b3480156100dc57600080fd5b50610109600480360360208110156100f357600080fd5b81019080803590602001909291905050506102dd565b604051808273ffffffffffffffffffffffffffffffffffffffff1673ffffffffffffffffffffffffffffffffffffffff16815260200191505060405180910390f35b34801561015757600080fd5b506101bd600480360361014081101561016f57600080fd5b81019080806101400190600a806020026040519081016040528092919082600a60200280828437600081840152601f19601f8201169050808301925050505050509192919290505050610312565b005b3480156101cb57600080fd5b506101f8600480360360208110156101e257600080fd5b8101908080359060200190929190505050610327565b6040518082815260200191505060405180910390f35b34801561021a57600080fd5b506102236103cc565b6040518082600a60200280838360005b8381101561024e578082015181840152602081019050610233565b5050505090500191505060405180910390f35b34801561026d57600080fd5b5061027661043b565b6040518082600a60200280838360005b838110156102a1578082015181840152602081019050610286565b5050505090500191505060405180910390f35b600a81600a811015156102c357fe5b60209182820401919006915054906101000a900460ff1681565b600081600a811015156102ec57fe5b016000915054906101000a900473ffffffffffffffffffffffffffffffffffffffff1681565b80600090600a6103239291906104bc565b5050565b600080821015801561033a575060098211155b151561034557600080fd5b33600083600a8110151561035557fe5b0160006101000a81548173ffffffffffffffffffffffffffffffffffffffff021916908373ffffffffffffffffffffffffffffffffffffffff1602179055506001600a83600a811015156103a557fe5b602091828204019190066101000a81548160ff021916908315150217905550819050919050565b6103d4610539565b600a80806020026040519081016040528092919082600a8015610431576020028201916000905b82829054906101000a900460ff161515815260200190600101906020826000010492830192600103820291508084116103fb5790505b5050505050905090565b61044361055d565b6000600a806020026040519081016040528092919082600a80156104b2576020028201915b8160009054906101000a900473ffffffffffffffffffffffffffffffffffffffff1673ffffffffffffffffffffffffffffffffffffffff1681526020019060010190808311610468575b5050505050905090565b82600a8101928215610528579160200282015b828111156105275782518260006101000a81548173ffffffffffffffffffffffffffffffffffffffff021916908373ffffffffffffffffffffffffffffffffffffffff160217905550916020019190600101906104cf565b5b5090506105359190610581565b5090565b61014060405190810160405280600a90602082028038833980820191505090505090565b61014060405190810160405280600a90602082028038833980820191505090505090565b6105c191905b808211156105bd57600081816101000a81549073ffffffffffffffffffffffffffffffffffffffff021916905550600101610587565b5090565b9056fea165627a7a72305820bd611e9d7e40ac6bcac69ff50d4d5c0448060a95abff117bd030b644a3daf0840029",
  "source": "pragma solidity >=0.4.22 <0.6.0;\r\n\r\ncontract Attendence {\r\n\r\n    address[10] public students;  \r\n    bool[10] public states = [false,false,false,false,false,false,false,false,false,false];\r\n\r\n    function check_in(uint sid) public returns (uint) {\r\n        require(sid >= 0 && sid <= 9);  // 确保id在数组长度内\r\n        \r\n        students[sid] = msg.sender;        // 保存调用者地址 \r\n        states[sid] = true;\r\n        return sid;\r\n    }\r\n\r\n    function init(address[10] memory _students) public {\r\n        students = _students;\r\n    }\r\n\r\n    function getStudents() public view returns (address[10] memory) {\r\n        return students;\r\n    }\r\n\r\n    function getStates() public view returns (bool[10] memory) {\r\n        return states;\r\n    }\r\n}\r\n",
  "sourcePath": "H:/Codes/Blockchain/petshop/contracts/Attendence.sol",
  "compiler": {
    "name": "solc",
    "version": "0.5.0+commit.1d4f565a.Emscripten.clang"
  },
  "schemaVersion": "3.0.0",
  "updatedAt": "2018-12-28T14:59:15.734Z",
  "devdoc": {
    "methods": {}
  },
  "userdoc": {
    "methods": {}
  }
}